{
  "_format": "hh-sol-artifact-1",
  "contractName": "Lottery",
  "sourceName": "contracts/Loterie.sol",
  "abi": [
    {
      "inputs": [],
      "stateMutability": "nonpayable",
      "type": "constructor"
    },
    {
      "anonymous": false,
      "inputs": [
        {
          "indexed": false,
          "internalType": "address",
          "name": "winner",
          "type": "address"
        },
        {
          "indexed": false,
          "internalType": "uint256",
          "name": "amountWon",
          "type": "uint256"
        }
      ],
      "name": "WinnerSelected",
      "type": "event"
    },
    {
      "inputs": [],
      "name": "enter",
      "outputs": [],
      "stateMutability": "payable",
      "type": "function"
    },
    {
      "inputs": [],
      "name": "getParticipants",
      "outputs": [
        {
          "internalType": "address[]",
          "name": "",
          "type": "address[]"
        }
      ],
      "stateMutability": "view",
      "type": "function"
    },
    {
      "inputs": [],
      "name": "manager",
      "outputs": [
        {
          "internalType": "address",
          "name": "",
          "type": "address"
        }
      ],
      "stateMutability": "view",
      "type": "function"
    },
    {
      "inputs": [
        {
          "internalType": "uint256",
          "name": "",
          "type": "uint256"
        }
      ],
      "name": "participants",
      "outputs": [
        {
          "internalType": "address",
          "name": "",
          "type": "address"
        }
      ],
      "stateMutability": "view",
      "type": "function"
    },
    {
      "inputs": [],
      "name": "pickWinner",
      "outputs": [],
      "stateMutability": "nonpayable",
      "type": "function"
    },
    {
      "inputs": [],
      "name": "ticketPrice",
      "outputs": [
        {
          "internalType": "uint256",
          "name": "",
          "type": "uint256"
        }
      ],
      "stateMutability": "view",
      "type": "function"
    }
  ],
  "bytecode": "0x6080604052670de0b6b3a7640000600255348015601b57600080fd5b50336000806101000a81548173ffffffffffffffffffffffffffffffffffffffff021916908373ffffffffffffffffffffffffffffffffffffffff160217905550610b268061006b6000396000f3fe6080604052600436106100555760003560e01c80631209b1f61461005a57806335c1d34914610085578063481c6a75146100c25780635aa68ac0146100ed5780635d495aea14610118578063e97dcb621461012f575b600080fd5b34801561006657600080fd5b5061006f610139565b60405161007c91906105a7565b60405180910390f35b34801561009157600080fd5b506100ac60048036038101906100a791906105f3565b61013f565b6040516100b99190610661565b60405180910390f35b3480156100ce57600080fd5b506100d761017e565b6040516100e49190610661565b60405180910390f35b3480156100f957600080fd5b506101026101a2565b60405161010f919061073a565b60405180910390f35b34801561012457600080fd5b5061012d610230565b005b610137610407565b005b60025481565b6001818154811061014f57600080fd5b906000526020600020016000915054906101000a900473ffffffffffffffffffffffffffffffffffffffff1681565b60008054906101000a900473ffffffffffffffffffffffffffffffffffffffff1681565b6060600180548060200260200160405190810160405280929190818152602001828054801561022657602002820191906000526020600020905b8160009054906101000a900473ffffffffffffffffffffffffffffffffffffffff1673ffffffffffffffffffffffffffffffffffffffff16815260200190600101908083116101dc575b5050505050905090565b60008054906101000a900473ffffffffffffffffffffffffffffffffffffffff1673ffffffffffffffffffffffffffffffffffffffff163373ffffffffffffffffffffffffffffffffffffffff16146102be576040517f08c379a00000000000000000000000000000000000000000000000000000000081526004016102b5906107df565b60405180910390fd5b60006001805490506102ce6104b1565b6102d8919061082e565b90506000600182815481106102f0576102ef61085f565b5b9060005260206000200160009054906101000a900473ffffffffffffffffffffffffffffffffffffffff16905060004790508173ffffffffffffffffffffffffffffffffffffffff166108fc829081150290604051600060405180830381858888f19350505050158015610368573d6000803e3d6000fd5b507f75060f9e79552df167b73353fee6237a75bb5ba8ea022f77224e32f152138bcb828260405161039a92919061088e565b60405180910390a1600067ffffffffffffffff8111156103bd576103bc6108b7565b5b6040519080825280602002602001820160405280156103eb5781602001602082028036833780820191505090505b50600190805190602001906104019291906104e7565b50505050565b60025434101561044c576040517f08c379a000000000000000000000000000000000000000000000000000000000815260040161044390610958565b60405180910390fd5b6001339080600181540180825580915050600190039060005260206000200160009091909190916101000a81548173ffffffffffffffffffffffffffffffffffffffff021916908373ffffffffffffffffffffffffffffffffffffffff160217905550565b6000444260016040516020016104c993929190610ab7565b6040516020818303038152906040528051906020012060001c905090565b828054828255906000526020600020908101928215610560579160200282015b8281111561055f5782518260006101000a81548173ffffffffffffffffffffffffffffffffffffffff021916908373ffffffffffffffffffffffffffffffffffffffff16021790555091602001919060010190610507565b5b50905061056d9190610571565b5090565b5b8082111561058a576000816000905550600101610572565b5090565b6000819050919050565b6105a18161058e565b82525050565b60006020820190506105bc6000830184610598565b92915050565b600080fd5b6105d08161058e565b81146105db57600080fd5b50565b6000813590506105ed816105c7565b92915050565b600060208284031215610609576106086105c2565b5b6000610617848285016105de565b91505092915050565b600073ffffffffffffffffffffffffffffffffffffffff82169050919050565b600061064b82610620565b9050919050565b61065b81610640565b82525050565b60006020820190506106766000830184610652565b92915050565b600081519050919050565b600082825260208201905092915050565b6000819050602082019050919050565b6106b181610640565b82525050565b60006106c383836106a8565b60208301905092915050565b6000602082019050919050565b60006106e78261067c565b6106f18185610687565b93506106fc83610698565b8060005b8381101561072d57815161071488826106b7565b975061071f836106cf565b925050600181019050610700565b5085935050505092915050565b6000602082019050818103600083015261075481846106dc565b905092915050565b600082825260208201905092915050565b7f4f6e6c7920746865206d616e616765722063616e207069636b2074686520776960008201527f6e6e65722e000000000000000000000000000000000000000000000000000000602082015250565b60006107c960258361075c565b91506107d48261076d565b604082019050919050565b600060208201905081810360008301526107f8816107bc565b9050919050565b7f4e487b7100000000000000000000000000000000000000000000000000000000600052601260045260246000fd5b60006108398261058e565b91506108448361058e565b925082610854576108536107ff565b5b828206905092915050565b7f4e487b7100000000000000000000000000000000000000000000000000000000600052603260045260246000fd5b60006040820190506108a36000830185610652565b6108b06020830184610598565b9392505050565b7f4e487b7100000000000000000000000000000000000000000000000000000000600052604160045260246000fd5b7f4d696e696d756d2045544820746f20706172746963697061746520697320312060008201527f6574686572000000000000000000000000000000000000000000000000000000602082015250565b600061094260258361075c565b915061094d826108e6565b604082019050919050565b6000602082019050818103600083015261097181610935565b9050919050565b6000819050919050565b61099361098e8261058e565b610978565b82525050565b600081549050919050565b600081905092915050565b60008190508160005260206000209050919050565b6109cd81610640565b82525050565b60006109df83836109c4565b60208301905092915050565b60008160001c9050919050565b600073ffffffffffffffffffffffffffffffffffffffff82169050919050565b6000610a2b610a26836109eb565b6109f8565b9050919050565b6000610a3e8254610a18565b9050919050565b6000600182019050919050565b6000610a5d82610999565b610a6781856109a4565b9350610a72836109af565b8060005b83811015610aaa57610a8782610a32565b610a9188826109d3565b9750610a9c83610a45565b925050600181019050610a76565b5085935050505092915050565b6000610ac38286610982565b602082019150610ad38285610982565b602082019150610ae38284610a52565b915081905094935050505056fea26469706673582212209ed15edcd4aa10d831f2365895350e5c603f16b47d33c1facebc2abb80ab024864736f6c634300081b0033",
  "linkReferences": {},
  "deployedLinkReferences": {}
}